:020000040800F2
:10000000002800208D0C00081D0C0008230C00089F
:10001000290C00082F0C0008350C00080000000017
:100020000000000000000000000000003B0C000881
:10003000470C000800000000530C00085F0C00088B
:10004000D50C0008D50C0008D50C0008D50C00080C
:10005000D50C0008D50C0008D50C0008D50C0008FC
:10006000D50C0008D50C0008D50C0008D50C0008EC
:10007000D50C0008D50C0008D50C0008D50C0008DC
:10008000D50C0008D50C0008D50C0008D50C0008CC
:10009000D50C0008D50C0008D50C0008D50C0008BC
:1000A000D50C0008D50C0008D50C0008D50C0008AC
:1000B0006D0C0008D50C000800000000D50C0008ED
:1000C000D50C00080000000000000000D50C00085E
:1000D00000000000D50C0008D50C0008000000004E
:1000E000D50C0008D50C0008D50C00080000000055
:1000F0000000000000000000000000000000000000
:0C01000000000000000000005FF808F1A3
:10010C0010B5054C237833B9044B13B10448AFF345
:10011C0000800123237010BD34000020000000007B
:10012C000423000808B5034B1BB103490348AFF384
:10013C00008008BD000000003800002004230008E7
:10014C0080B582B000AF78607B68092B00F28081AB
:10015C0001A252F823F000BF8D010008D501000860
:10016C001D02000865020008AD020008F502000837
:10017C003D03000885030008CD03000815040008A2
:10018C0000220121B44801F08DF800220221B2486E
:10019C0001F088F800220421AF4801F083F8002216
:1001AC000821AD4801F07EF800221021AA4801F088
:1001BC0079F800222021A84801F074F8012240218E
:1001CC00A54801F06FF843E101220121A24801F09A
:1001DC0069F800220221A04801F064F800220421F1
:1001EC009D4801F05FF8012208219B4801F05AF864
:1001FC0001221021984801F055F80122202196483F
:10020C0001F050F801224021934801F04BF81FE116
:10021C0000220121904801F045F8002202218E486D
:10022C0001F040F8012204218B4801F03BF8002238
:10023C000821894801F036F800221021864801F087
:10024C0031F801222021844801F02CF800224021B1
:10025C00814801F027F8FBE0002201217E4801F0E3
:10026C0021F8002202217C4801F01CF80022042114
:10027C00794801F017F800220821774801F012F8AC
:10028C0001221021744801F00DF80122202172483E
:10029C0001F008F8002240216F4801F003F8D7E084
:1002AC00012201216C4800F0FDFF002202216A4866
:1002BC0000F0F8FF00220421674800F0F3FF012250
:1002CC000821654800F0EEFF01221021624800F081
:1002DC00E9FF00222021604800F0E4FF00224021C9
:1002EC005D4800F0DFFFB3E0002201215A4800F026
:1002FC00D9FF01220221584800F0D4FF002204212A
:10030C00554800F0CFFF00220821534800F0CAFFE7
:10031C0001221021504800F0C5FF002220214E4838
:10032C0000F0C0FF002240214B4800F0BBFF8FE0E3
:10033C0000220121484800F0B5FF01220221464865
:10034C0000F0B0FF00220421434800F0ABFF002274
:10035C000821414800F0A6FF002210213E4800F081
:10036C00A1FF002220213C4800F09CFF00224021EC
:10037C00394800F097FF6BE000220121364800F06D
:10038C0091FF00220221344800F08CFF002204214E
:10039C00314800F087FF012208212F4800F082FF2E
:1003AC00012210212C4800F07DFF012220212A4837
:1003BC0000F078FF01224021274800F073FF47E04E
:1003CC0000220121244800F06DFF00220221224866
:1003DC0000F068FF002204211F4800F063FF002298
:1003EC0008211D4800F05EFF002210211A4800F081
:1003FC0059FF00222021184800F054FF0022402110
:10040C00154800F04FFF23E000220121124800F0B4
:10041C0049FF00220221104800F044FF0022042171
:10042C000D4800F03FFF002208210B4800F03AFF76
:10043C0001221021084800F035FF00222021064837
:10044C0000F030FF00224021034800F02BFF00BFDA
:10045C0000BF0837BD4680BD000C014080B582B09E
:10046C0000AF78607B68032B4AD801A252F823F0C6
:10047C008D040008AD040008CD040008ED0400084C
:10048C0000224021214800F00DFF01228C211F4841
:10049C0000F008FF1E4B1B681846FFF751FE30E0BA
:1004AC0000228021194800F0FDFE01224C21174842
:1004BC0000F0F8FE164B5B681846FFF741FE20E093
:1004CC0000220421114800F0EDFE0122C8210F4842
:1004DC0000F0E8FE0E4B9B681846FFF731FE10E06B
:1004EC0000220821094800F0DDFE0122C421074842
:1004FC0000F0D8FE064BDB681846FFF721FE00E043
:10050C0000BF00BF0837BD4680BD00BF00080140DA
:10051C000000002080B400AF1A4B1B681A4A82FB03
:10052C0003129210DB17D31A184A1360154B196873
:10053C00154B83FB01239A10CB17D21A13469B0041
:10054C0013445B00CA1A114B5A60114B1B680E4ABC
:10055C0082FB03129210DB17D31A0C4A93600C4BDC
:10056C001968094B83FB01239A10CB17D21A134637
:10057C009B0013445B00CA1A044BDA6000BFBD46F3
:10058C0080BC704710000020676666660000002083
:10059C001400002080B483B000AF7860074B1B6858
:1005AC007A6892FBF3F3064A1360064B00221A603A
:1005BC0000BF0C37BD4680BC704700BF1C0000203C
:1005CC009C000020A000002080B483B000AF7860B5
:1005DC00074B1B687A6892FBF3F3064A1360064BD1
:1005EC0000221A6000BF0C37BD4680BC704700BFAC
:1005FC001C000020A4000020A800002080B483B0C0
:10060C0000AF7860074B1B687A6892FBF3F3064ADD
:10061C001360064B00221A6000BF0C37BD4680BC2D
:10062C00704700BF1C000020AC000020B000002070
:10063C0080B483B000AF7860074B1B687A6892FB7C
:10064C00F3F3064A1360064B00221A6000BF0C3706
:10065C00BD4680BC704700BF1C000020B4000020C9
:10066C00B800002080B400AF214B1B68002B0BDDC1
:10067C001F4B1B68013B1E4A13601D4B1B68002B54
:10068C0002D11C4B01221A601B4B1B68002B0BDD8B
:10069C00194B1B68013B184A1360174B1B68002B46
:1006AC0002D1164B01221A60154B1B68002B0BDD77
:1006BC00134B1B68013B124A1360114B1B68002B38
:1006CC0002D1104B01221A600F4B1B68002B0BDD63
:1006DC000D4B1B68013B0C4A13600B4B1B68002B2A
:1006EC0002D10A4B01221A6000BFBD4680BC704784
:1006FC009C000020A0000020A4000020A8000020E6
:10070C00AC000020B0000020B4000020B800002095
:10071C0080B582B000AF7860524B4FF07F421A61C7
:10072C00514B4FF07F421A617B68072B00F294808B
:10073C0001A252F823F000BF6507000885070008E6
:10074C00A5070008C5070008E5070008050800080C
:10075C00250800084508000801224FF48071414823
:10076C0000F0A0FD404BDB68404A127812021146A3
:10077C003D4A0B43D36070E001224FF400713948BD
:10078C0000F090FD384BDB68384A52781202114663
:10079C00354A0B43D36060E001224FF4806131484D
:1007AC0000F080FD304BDB68304A92781202114623
:1007BC002D4A0B43D36050E001224FF400612948CD
:1007CC0000F070FD284BDB68284AD27812021146E3
:1007DC00254A0B43D36040E001224FF4805121485D
:1007EC0000F060FD204BDB68204A127912021146A2
:1007FC001D4A0B43D36030E001224FF400511948DD
:10080C0000F050FD184BDB68184A52791202114661
:10081C00154A0B43D36020E001224FF4804111486C
:10082C0000F040FD104BDB68104A92791202114621
:10083C000D4A0B43D36010E001224FF400410948EC
:10084C0000F030FD084BDB68084AD27912021146E1
:10085C00054A0B43D36000E000BF00BF0837BD461C
:10086C0080BD00BF000C01400008014020000020AA
:10087C0080B500AF00F02AFA00F096F800F01CF9F1
:10088C0000F0CEF83D4801F077F94FF47A70FFF79D
:10089C0081FE4FF47A70FFF797FEFA20FFF7AEFE59
:1008AC006420FFF7C5FE364B1B68012B0BD12021B2
:1008BC00344800F00FFD1021324800F00BFD4FF4CE
:1008CC007A70FFF767FE304B1B68012B29D12F4B39
:1008DC001B6801332D4A13602C4B1B683B2B07DD27
:1008EC002A4B00221A602A4B1B680133284A1360DA
:1008FC00274B1B683B2B07DD254B00221A60254B31
:10090C001B680133234A1360224B1B68172B02DD33
:10091C00204B00221A60FFF7FDFD4FF47A70FFF7B1
:10092C0053FE1D4B1B68012B11D11C4B1B68032B59
:10093C0002DD1A4B00221A60184B1B685A1C17490F
:10094C000A601846FFF78AFDFA20FFF757FE144B92
:10095C001B68012BA7D1134B1B68072B02DD114B16
:10096C0000221A600F4B1B685A1C0E490A6018466D
:10097C00FFF7CEFE6420FFF75BFE94E750000020EB
:10098C00A000002000080140A80000201800002052
:10099C001400002010000020B0000020980000205F
:1009AC00B8000020BC00002080B590B000AF07F16B
:1009BC00180328220021184601F096FC3B1D00224A
:1009CC001A605A609A60DA601A610223BB610123D3
:1009DC00BB621023FB6200237B6307F118031846EC
:1009EC0000F092FC0346002B01D000F0C5F80F2359
:1009FC007B600023BB600023FB6000233B61002372
:100A0C007B613B1D0021184600F000FF0346002BC4
:100A1C0001D000F0B1F800BF4037BD4680BD0000EA
:100A2C0080B586B000AF07F1080300221A605A6047
:100A3C009A60DA603B4600221A605A601D4B4FF0F8
:100A4C0080421A601B4B41F63F725A60194B0022D0
:100A5C009A60184B0922DA60164B00221A61154B6A
:100A6C0000229A61134801F037F80346002B01D09D
:100A7C0000F082F84FF48053BB6007F1080319466D
:100A8C000C4801F0CDF90346002B01D000F074F8AE
:100A9C0000233B6000237B603B461946054801F070
:100AAC0095FB0346002B01D000F066F800BF183709
:100ABC00BD4680BD5000002080B586B000AF07F168
:100ACC00080300221A605A609A60DA60224B9B6914
:100ADC00214A43F0040393611F4B9B6903F0040309
:100AEC007B607B681C4B9B691B4A43F0080393613A
:100AFC00194B9B6903F008033B603B6800224FF6DF
:100B0C00FC71164800F0CEFB00224FF67F711448A2
:100B1C0000F0C8FB4FF6FC73BB600123FB600023A5
:100B2C003B6102237B6107F1080319460B4800F077
:100B3C003DFA4FF67F73BB600123FB6000233B61E2
:100B4C0002237B6107F108031946054800F02EFAD1
:100B5C0000BF1837BD4680BD0010024000080140A0
:100B6C00000C014080B582B000AF7860FFF77AFDD1
:100B7C0000BF0837BD4680BD80B400AF72B600BF61
:100B8C00FEE7000080B483B000AF0E4B9B690D4AAA
:100B9C0043F0010393610B4B9B6903F001037B60F2
:100BAC007B68084BDB69074A43F08053D361054BE4
:100BBC00DB6903F080533B603B6800BF0C37BD46DC
:100BCC0080BC70470010024080B584B000AF7860E4
:100BDC007B681B68B3F1804F13D10C4BDB690B4A5C
:100BEC0043F00103D361094BDB6903F00103FB60A4
:100BFC00FB68002200211C2000F0A1F91C2000F051
:100C0C00BAF900BF1037BD4680BD00BF00100240CE
:100C1C0080B400AFFEE780B400AFFEE780B400AF55
:100C2C00FEE780B400AFFEE780B400AFFEE780B40F
:100C3C0000AF00BFBD4680BC704780B400AF00BFA2
:100C4C00BD4680BC704780B400AF00BFBD4680BCC1
:100C5C00704780B500AF00F07FF800BF80BD00008A
:100C6C0080B500AF024800F0D3FF00BF80BD00BFCD
:100C7C005000002080B400AF00BFBD4680BC704760
:100C8C000C480D490D4A002302E0D458C4500433DB
:100C9C00C4188C42F9D30A4A0A4C002301E01360B1
:100CAC000432A242FBD3FFF7E5FF01F0F9FAFFF79C
:100CBC00DFFD7047000000203400002044230008B2
:100CCC0034000020C4000020FEE7000080B500AF17
:100CDC00084B1B68074A43F010031360032000F015
:100CEC0023F90F2000F008F8FFF74CFF00231846FB
:100CFC0080BD00BF0020024080B582B000AF78609C
:100D0C00124B1A68124B1B7819464FF47A73B3FBCB
:100D1C00F1F3B2FBF3F3184600F03BF90346002B5A
:100D2C0001D001230EE07B680F2B0AD800227968D2
:100D3C004FF0FF3000F003F9064A7B681360002384
:100D4C0000E0012318460837BD4680BD280000206E
:100D5C00300000202C00002080B400AF054B1B7825
:100D6C001A46054B1B681344034A136000BFBD466B
:100D7C0080BC704730000020C000002080B400AF61
:100D8C00024B1B681846BD4680BC7047C000002053
:100D9C0080B485B000AF78607B6803F00703FB601C
:100DAC000C4BDB68BB60BA684FF6FF031340BB60AB
:100DBC00FB681A02BB68134343F0BF6343F4003370
:100DCC00BB60044ABB68D36000BF1437BD4680BC0F
:100DDC00704700BF00ED00E080B400AF044BDB684F
:100DEC001B0A03F007031846BD4680BC704700BFC2
:100DFC0000ED00E080B483B000AF0346FB7197F9BF
:100E0C000730002B0BDBFB7903F01F02064997F927
:100E1C0007305B09012000FA02F241F8232000BFE1
:100E2C000C37BD4680BC704700E100E080B483B055
:100E3C0000AF03463960FB7197F90730002B0ADBD2
:100E4C003B68DAB20C4997F907301201D2B20B4465
:100E5C0083F800230AE03B68DAB20849FB7903F017
:100E6C000F03043B1201D2B20B441A7600BF0C37AD
:100E7C00BD4680BC704700BF00E100E000ED00E023
:100E8C0080B489B000AFF860B9607A60FB6803F099
:100E9C000703FB61FB69C3F10703042B28BF042381
:100EAC00BB61FB690433062B02D9FB69033B00E0F1
:100EBC0000237B614FF0FF32BB6902FA03F3DA4384
:100ECC00BB681A407B699A404FF0FF317B6901FA8D
:100EDC0003F3D9437B680B40134318462437BD46B4
:100EEC0080BC704780B582B000AF78607B68013BF6
:100EFC00B3F1807F01D301230FE00A4A7B68013BE9
:100F0C0053600F214FF0FF30FFF790FF054B00228D
:100F1C009A60044B07221A60002318460837BD4616
:100F2C0080BD00BF10E000E080B582B000AF7860FB
:100F3C007868FFF72DFF00BF0837BD4680BD80B530
:100F4C0086B000AF0346B9607A60FB7300237B6107
:100F5C00FFF742FF78617A68B9687869FFF790FF0C
:100F6C00024697F90F3011461846FFF75FFF00BF96
:100F7C001837BD4680BD80B582B000AF0346FB710B
:100F8C0097F907301846FFF735FF00BF0837BD4605
:100F9C0080BD80B582B000AF78607868FFF7A2FFA3
:100FAC00034618460837BD4680BD000080B48BB0A0
:100FBC0000AF7860396000237B6200233B6261E103
:100FCC0001227B6A02FA03F3FB613B681B68FA6936
:100FDC001340BB61BA69FB699A4240F050813B688F
:100FEC005B68974A93425ED0954A934275D8954A6E
:100FFC00934258D0934A93426FD8934A934252D01B
:10100C00914A934269D8914A93424CD08F4A934269
:10101C0063D88F4A934246D08D4A93425DD8122BA7
:10102C002AD8122B59D801A252F823F0B310000879
:10103C008D1000089F100008E1100008E710000850
:10104C00E7100008E7100008E7100008E710000898
:10105C00E7100008E7100008E7100008E710000888
:10106C00E7100008E7100008E7100008E710000878
:10107C0095100008A9100008764A934213D02CE072
:10108C003B68DB683B6229E03B68DB6804333B620E
:10109C0024E03B68DB6808333B621FE03B68DB689D
:1010AC000C333B621AE03B689B68002B02D1042393
:1010BC003B6213E03B689B68012B05D108233B6224
:1010CC007B68FA691A6109E008233B627B68FA695C
:1010DC005A6103E000233B6200E000BFBB69FF2BB9
:1010EC0001D87B6801E07B6804337B61BB69FF2B13
:1010FC0002D87B6A9B0002E07B6A083B9B003B6149
:10110C007B691A680F213B6901FA03F3DB431A4030
:10111C00396A3B6901FA03F31A437B691A603B682D
:10112C005B6803F08053002B00F0A9804A4B9B694D
:10113C00494A43F001039361474B9B6903F0010358
:10114C00BB60BB68454A7B6A9B08023352F823306C
:10115C00FB607B6A03F003039B000F2202FA03F38C
:10116C00DB43FA681340FB607B683D4A93420DD029
:10117C007B683C4A934207D07B683B4A934201D13F
:10118C00022304E0032302E0012300E000237A6A37
:10119C0002F0030292009340FA681343FB602F495C
:1011AC007B6A9B080233FA6841F823203B685B6832
:1011BC0003F48033002B06D02C4B1A682B49BB69E7
:1011CC0013430B6006E0294B1A68BB69DB432749C4
:1011DC0013400B603B685B6803F40033002B06D0B4
:1011EC00224B5A682149BB6913434B6006E01F4BE5
:1011FC005A68BB69DB431D4913404B603B685B6815
:10120C0003F48013002B06D0184B9A681749BB695E
:10121C0013438B6006E0154B9A68BB69DB4313499B
:10122C0013408B603B685B6803F40013002B1FD0EA
:10123C000E4BDA680D49BB691343CB601FE000BF4E
:10124C0000003210000031100000221000002110AC
:10125C0000001210000011100010024000000140AC
:10126C0000080140000C0140001001400004014046
:10127C000B4BDA68BB69DB4309491340CB607B6AD3
:10128C0001337B623B681A687B6A22FA03F3002BFA
:10129C007FF496AE00BF00BF2C37BD4680BC7047B4
:1012AC000004014080B483B000AF78600B467B80B3
:1012BC0013467B707B78002B03D07A887B681A618D
:1012CC0003E07B881A047B681A6100BF0C37BD46AB
:1012DC0080BC704780B485B000AF78600B467B80D3
:1012EC007B68DB68FB607A88FB6813401A04FB6838
:1012FC00D9437B880B401A437B681A6100BF1437B3
:10130C00BD4680BC7047000080B586B000AF7860E9
:10131C007B68002B01D1012372E27B681B6803F010
:10132C000103002B00F08780924B5B6803F00C03E9
:10133C00042B0CD08F4B5B6803F00C03082B12D1E1
:10134C008C4B5B6803F48033B3F5803F0BD1894B36
:10135C001B6803F40033002B6CD07B685B68002B9C
:10136C0068D101234CE27B685B68B3F5803F06D102
:10137C00804B1B687F4A43F4803313602EE07B68FC
:10138C005B68002B0CD17B4B1B687A4A23F48033AF
:10139C001360784B1B68774A23F4802313601DE09D
:1013AC007B685B68B3F5A02F0CD1724B1B68714A3C
:1013BC0043F4802313606F4B1B686E4A43F48033F5
:1013CC0013600BE06B4B1B686A4A23F48033136089
:1013DC00684B1B68674A23F4802313607B685B6847
:1013EC00002B13D0FFF7CAFC386108E0FFF7C6FCEE
:1013FC0002463B69D31A642B01D9032300E25D4BEF
:10140C001B6803F40033002BF0D014E0FFF7B6FC9C
:10141C00386108E0FFF7B2FC02463B69D31A642B33
:10142C0001D90323ECE1534B1B6803F40033002B6D
:10143C00F0D100E000BF7B681B6803F00203002BB7
:10144C0063D04C4B5B6803F00C03002B0BD0494B67
:10145C005B6803F00C03082B1CD1464B5B6803F450
:10146C008033002B16D1434B1B6803F00203002B77
:10147C0005D07B681B69012B01D00123C0E13D4BDA
:10148C001B6823F0F8027B685B69DB003949134366
:10149C000B603AE07B681B69002B20D0364B012295
:1014AC001A60FFF76BFC386108E0FFF767FC024637
:1014BC003B69D31A022B01D90323A1E12D4B1B68E5
:1014CC0003F00203002BF0D02A4B1B6823F0F80228
:1014DC007B685B69DB00274913430B6015E0264BE7
:1014EC0000221A60FFF74AFC386108E0FFF746FC5F
:1014FC0002463B69D31A022B01D9032380E11D4B11
:10150C001B6803F00203002BF0D17B681B6803F00F
:10151C000803002B3AD07B689B69002B19D0174B22
:10152C0001221A60FFF72AFC386108E0FFF726FC5D
:10153C0002463B69D31A022B01D9032360E10D4B00
:10154C005B6A03F00203002BF0D0012000F0A6FA36
:10155C001CE00A4B00221A60FFF710FC38610FE008
:10156C00FFF70CFC02463B69D31A022B08D9032364
:10157C0046E100BF0010024000004242800442429B
:10158C00924B5B6A03F00203002BE9D17B681B686A
:10159C0003F00403002B00F0A6800023FB758B4B9B
:1015AC00DB6903F08053002B0DD1884BDB69874A34
:1015BC0043F08053D361854BDB6903F08053BB60F0
:1015CC00BB680123FB75824B1B6803F48073002BF3
:1015DC0018D17F4B1B687E4A43F480731360FFF76E
:1015EC00CDFB386108E0FFF7C9FB02463B69D31A13
:1015FC00642B01D9032303E1754B1B6803F480733F
:10160C00002BF0D07B68DB68012B06D16F4B1B6A7B
:10161C006E4A43F0010313622DE07B68DB68002BFC
:10162C000CD16A4B1B6A694A23F001031362674BA6
:10163C001B6A664A23F0040313621CE07B68DB68B8
:10164C00052B0CD1614B1B6A604A43F004031362F7
:10165C005E4B1B6A5D4A43F0010313620BE05B4B6C
:10166C001B6A5A4A23F001031362584B1B6A574AF0
:10167C0023F0040313627B68DB68002B15D0FFF7A3
:10168C007DFB38610AE0FFF779FB02463B69D31A10
:10169C0041F28832934201D90323B1E04B4B1B6AD0
:1016AC0003F00203002BEED014E0FFF767FB386168
:1016BC000AE0FFF763FB02463B69D31A41F288321A
:1016CC00934201D903239BE0404B1B6A03F00203B6
:1016DC00002BEED1FB7D012B05D13C4BDB693B4A4A
:1016EC0023F08053D3617B68DB69002B00F087808B
:1016FC00364B5B6803F00C03082B61D07B68DB690D
:10170C00022B46D1334B00221A60FFF737FB3861AE
:10171C0008E0FFF733FB02463B69D31A022B01D9D1
:10172C0003236DE0294B1B6803F00073002BF0D1F1
:10173C007B681B6AB3F5803F08D1244B5B6823F4AC
:10174C0000327B689B68214913434B601F4B5B68DD
:10175C0023F474127B68196A7B685B6A0B431B4920
:10176C0013434B601B4B01221A60FFF707FB3861D8
:10177C0008E0FFF703FB02463B69D31A022B01D9A1
:10178C0003233DE0114B1B6803F00073002BF0D0DA
:10179C0035E0104B00221A60FFF7F0FA386108E0D0
:1017AC00FFF7ECFA02463B69D31A022B01D903234B
:1017BC0026E0064B1B6803F00073002BF0D11EE0F3
:1017CC007B68DB69012B07D1012319E00010024073
:1017DC0000700040600042420B4B5B68FB60FB6892
:1017EC0003F480327B681B6A9A4206D1FB6803F4CF
:1017FC0070127B685B6A9A4201D0012300E00023DF
:10180C0018461837BD4680BD0010024080B584B024
:10181C0000AF786039607B68002B01D10123D0E0E8
:10182C006A4B1B6803F007033A689A4210D9674B5E
:10183C001B6823F0070265493B6813430B60634B3D
:10184C001B6803F007033A689A4201D00123B8E001
:10185C007B681B6803F00203002B20D07B681B689D
:10186C0003F00403002B05D0594B5B68584A43F432
:10187C00E06353607B681B6803F00803002B05D002
:10188C00534B5B68524A43F460535360504B5B6854
:10189C0023F0F0027B689B684D4913434B607B68D7
:1018AC001B6803F00103002B40D07B685B68012BA5
:1018BC0007D1474B1B6803F40033002B15D10123D0
:1018CC007FE07B685B68022B07D1414B1B6803F000
:1018DC000073002B09D1012373E03D4B1B6803F00F
:1018EC000203002B01D101236BE0394B5B6823F021
:1018FC0003027B685B68364913434B60FFF73EFA83
:10190C00F8600AE0FFF73AFA0246FB68D31A41F294
:10191C008832934201D9032353E02D4B5B6803F0CB
:10192C000C027B685B689B009A42EBD1274B1B68CF
:10193C0003F007033A689A4210D2244B1B6823F039
:10194C00070222493B6813430B60204B1B6803F0D2
:10195C0007033A689A4201D0012332E07B681B6886
:10196C0003F00403002B08D0194B5B6823F4E062EE
:10197C007B68DB68164913434B607B681B6803F07C
:10198C000803002B09D0124B5B6823F460527B6870
:10199C001B69DB000E4913434B6000F021F8024633
:1019AC000B4B5B681B0903F00F030A49CB5C22FA53
:1019BC0003F3094A1360094B1B681846FFF79CF99F
:1019CC00002318461037BD4680BD00BF00200240E2
:1019DC00001002402C230008280000202C000020BE
:1019EC0090B48AB000AF294B3C1D0FCB84E80F009C
:1019FC0040F201233B800023FB610023BB610023E9
:101A0C007B6200237B6100233B62214B5B68FB61A3
:101A1C00FB6903F00C03042B02D0082B03D02BE042
:101A2C001C4B3B622BE0FB699B0C03F00F03283330
:101A3C003B4413F8243C7B61FB6903F48033002B9B
:101A4C0012D0134B5B685B0C03F0010328333B444F
:101A5C0013F8283CBB617B690E4A03FB02F2BB699D
:101A6C00B2FBF3F37B6204E07B690B4A02FB03F3EA
:101A7C007B627B6A3B6202E0064B3B6200BF3B6AC7
:101A8C0018462837BD4690BC704700BF1C23000881
:101A9C000010024000127A0000093D0080B485B0AD
:101AAC0000AF78600A4B1B680A4AA2FB03235B0A4F
:101ABC007A6802FB03F3FB6000BFFB685A1EFA60F6
:101ACC00002BF9D100BF00BF1437BD4680BC704756
:101ADC0028000020D34D621080B582B000AF786032
:101AEC007B68002B01D1012341E07B6893F83D30EA
:101AFC00DBB2002B06D17B68002283F83C2078688F
:101B0C00FFF762F87B68022283F83D207B681A6835
:101B1C007B6804331946104600F06AFA7B68012290
:101B2C0083F846207B68012283F83E207B680122E3
:101B3C0083F83F207B68012283F840207B680122D8
:101B4C0083F841207B68012283F842207B680122C4
:101B5C0083F843207B68012283F844207B680122B0
:101B6C0083F845207B68012283F83D20002318462A
:101B7C000837BD4680BD000080B485B000AF7860EA
:101B8C007B6893F83D30DBB2012B01D0012335E0AB
:101B9C007B68022283F83D207B681B68DA687B68CF
:101BAC001B6842F00102DA607B681B68164A93429C
:101BBC0009D07B681B68B3F1804F04D07B681B682D
:101BCC00124A934211D17B681B689B6803F0070390
:101BDC00FB60FB68062B10D07B681B681A687B685F
:101BEC001B6842F001021A6007E07B681B681A68E8
:101BFC007B681B6842F001021A60002318461437F8
:101C0C00BD4680BC704700BF002C01400004004062
:101C1C0080B582B000AF78607B681B681B6903F0ED
:101C2C000203022B22D17B681B68DB6803F00203E2
:101C3C00022B1BD17B681B686FF002021A617B6858
:101C4C0001221A777B681B689B6903F00303002B46
:101C5C0003D0786800F0B1F905E0786800F0A4F9D9
:101C6C00786800F0B3F97B6800221A777B681B68F0
:101C7C001B6903F00403042B22D17B681B68DB680F
:101C8C0003F00403042B1BD17B681B686FF0040268
:101C9C001A617B6802221A777B681B689B6903F4C4
:101CAC004073002B03D0786800F087F905E0786862
:101CBC0000F07AF9786800F089F97B6800221A77CD
:101CCC007B681B681B6903F00803082B22D17B6817
:101CDC001B68DB6803F00803082B1BD17B681B68AF
:101CEC006FF008021A617B6804221A777B681B6804
:101CFC00DB6903F00303002B03D0786800F05DF977
:101D0C0005E0786800F050F9786800F05FF97B68BE
:101D1C0000221A777B681B681B6903F01003102BD9
:101D2C0022D17B681B68DB6803F01003102B1BD1DE
:101D3C007B681B686FF010021A617B6808221A77A7
:101D4C007B681B68DB6903F44073002B03D0786855
:101D5C0000F033F905E0786800F026F9786800F0B7
:101D6C0035F97B6800221A777B681B681B6903F0C6
:101D7C000103012B0ED17B681B68DB6803F00103A8
:101D8C00012B07D17B681B686FF001021A61786820
:101D9C00FEF7E8FE7B681B681B6903F08003802B51
:101DAC000ED17B681B68DB6803F08003802B07D1A6
:101DBC007B681B686FF080021A61786800F067FA24
:101DCC007B681B681B6903F04003402B0ED17B68BA
:101DDC001B68DB6803F04003402B07D17B681B6852
:101DEC006FF040021A61786800F0F9F87B681B68A4
:101DFC001B6903F02003202B0ED17B681B68DB686A
:101E0C0003F02003202B07D17B681B686FF02002A6
:101E1C001A61786800F032FA00BF0837BD4680BD01
:101E2C0080B584B000AF786039607B6893F83C3043
:101E3C00012B01D10223B3E07B68012283F83C2003
:101E4C007B68022283F83D207B681B689B68FB60E3
:101E5C00FB6823F07703FB60FB6823F47F43FB6094
:101E6C007B681B68FA689A603B681B68B3F5005F77
:101E7C003ED0B3F5005F00F28780B3F5805F00F0D1
:101E8C008580B3F5805F7FD8702B1AD0702B7BD8F0
:101E9C00602B50D0602B77D8502B3CD0502B73D864
:101EAC00402B58D0402B6FD8302B64D0302B6BD8B4
:101EBC00202B60D0202B67D8002B5CD0102B5AD055
:101ECC0062E07B6818683B6899683B685A683B68B5
:101EDC00DB6800F05CF97B681B689B68FB60FB6847
:101EEC0043F07703FB607B681B68FA689A604EE0EE
:101EFC007B6818683B6899683B685A683B68DB6884
:101F0C0000F045F97B681B689A687B681B6842F493
:101F1C0080429A603BE07B6818683B6859683B6874
:101F2C00DB681A4600F0BCF87B681B685021184629
:101F3C0000F013F92BE07B6818683B6859683B6824
:101F4C00DB681A4600F0DAF87B681B6860211846DB
:101F5C0000F003F91BE07B6818683B6859683B6824
:101F6C00DB681A4600F09CF87B681B684021184619
:101F7C0000F0F3F80BE07B681A683B681B681946A5
:101F8C00104600F0EAF802E000BF00E000BF7B68FA
:101F9C00012283F83D207B68002283F83C2000233B
:101FAC0018461037BD4680BD80B483B000AF786052
:101FBC0000BF0C37BD4680BC704780B483B000AF07
:101FCC00786000BF0C37BD4680BC704780B483B0CE
:101FDC0000AF786000BF0C37BD4680BC704780B442
:101FEC0083B000AF786000BF0C37BD4680BC704733
:101FFC0080B485B000AF786039607B681B68FB608B
:10200C007B68254A934207D07B68B3F1804F03D09D
:10201C007B68224A934208D1FB6823F07003FB6073
:10202C003B685B68FA681343FB607B681A4A93420F
:10203C0007D07B68B3F1804F03D07B68174A93427B
:10204C0008D1FB6823F44073FB603B68DB68FA68DB
:10205C001343FB60FB6823F080023B685B6913430E
:10206C00FB607B68FA681A603B689A687B68DA6286
:10207C003B681A687B689A627B68074A934203D173
:10208C003B681A697B681A637B6801225A6100BF3E
:10209C001437BD4680BC7047002C01400004004042
:1020AC0080B487B000AFF860B9607A60FB681B6AD7
:1020BC007B61FB681B6A23F00102FB681A62FB68F8
:1020CC009B693B613B6923F0F0033B617B681B011F
:1020DC003A6913433B617B6923F00A037B617A699C
:1020EC00BB6813437B61FB683A699A61FB687A6948
:1020FC001A6200BF1C37BD4680BC704780B487B0E5
:10210C0000AFF860B9607A60FB681B6A23F01002BC
:10211C00FB681A62FB689B697B61FB681B6A3B610D
:10212C007B6923F470437B617B681B037A691343DF
:10213C007B613B6923F0A0033B61BB681B013A69DF
:10214C0013433B61FB687A699A61FB683A691A62CE
:10215C0000BF1C37BD4680BC704780B485B000AF53
:10216C00786039607B689B68FB60FB6823F07003C8
:10217C00FB603A68FB68134343F00703FB607B6822
:10218C00FA689A6000BF1437BD4680BC704780B4B3
:10219C0087B000AFF860B9607A603B60FB689B6801
:1021AC007B617B6923F47F437B613B681A027B680C
:1021BC001A43BB6813437A6913437B61FB687A69E2
:1021CC009A6000BF1C37BD4680BC704780B485B098
:1021DC0000AF786039607B6893F83C30012B01D1FB
:1021EC00022341E07B68012283F83C207B680222B9
:1021FC0083F83D207B681B685B68FB607B681B6811
:10220C009B68BB60FB6823F07003FB603B681B683A
:10221C00FA681343FB607B681B68FA685A607B683A
:10222C001B68144A934209D07B681B68B3F1804F3A
:10223C0004D07B681B68104A93420CD1BB6823F016
:10224C008003BB603B685B68BA681343BB607B6808
:10225C001B68BA689A607B68012283F83D207B6812
:10226C00002283F83C20002318461437BD4680BC5E
:10227C00704700BF002C01400004004080B483B0C4
:10228C0000AF786000BF0C37BD4680BC704780B48F
:10229C0083B000AF786000BF0C37BD4680BC704780
:1022AC0070B500260C4D0D4C641BA410A64209D130
:1022BC0000F022F800260A4D0A4C641BA410A6421A
:1022CC0005D170BD55F8043B98470136EEE755F83B
:1022DC00043B98470136F2E73C2300083C230008F6
:1022EC003C2300084023000803460244934200D1DB
:1022FC00704703F8011BF9E7F8B500BFF8BC08BC40
:10230C009E467047F8B500BFF8BC08BC9E467047A7
:10231C0002030405060708090A0B0C0D0E0F10101A
:10232C000000000000000000010203040607080979
:04233C003101000863
:042340000D01000883
:10234400010000000200000003000000040000007F
:102354000F00000008000000320000000A00000026
:10236400007C7E13137E7C000024F4001000000027
:042374000100000064
:0400000508000C8D56
:00000001FF
